:020000040800F2
:1000000000500020F11800089D0500089F05000819
:10001000A1050008A3050008A505000800000000D0
:10002000000000000000000000000000A70500081C
:10003000A905000800000000AB050008AD05000898
:100040003919000839190008391900083919000848
:100050003919000839190008391900083919000838
:10006000391900083919000839190008B5050008C0
:100070003919000839190008391900083919000818
:100080003919000839190008391900083919000808
:1000900039190008391900083919000839190008F8
:1000A00039190008391900083919000839190008E8
:1000B00039190008391900083919000839190008D8
:1000C00039190008391900083919000839190008C8
:1000D00039190008391900083919000839190008B8
:1000E0003919000839190008391900080000000002
:1000F0000000000000000000000000000000000000
:0C01000000000000000000005FF808F1A3
:10010C000348044B834202D0034B03B1184770479A
:10011C000C0000200C000020000000000548064BDD
:10012C001B1AD90F01EBA301491002D0034B03B1E9
:10013C00184770470C0000200C0000200000000045
:10014C0010B5064C237843B9FFF7DAFF044B13B113
:10015C000448AFF300800123237010BD0C00002075
:10016C00000000009419000808B5054B1BB10549A7
:10017C000548AFF30080BDE80840FFF7CFBF00BFD4
:10018C0000000000100000209419000872B6FEE771
:10019C0000B595B0282200210DEB020001F0C7FB41
:1001AC0000230593069307930893099301930293F5
:1001BC000393049301220A924FF480330B930E9213
:1001CC000222119212934FF4801313930AA800F099
:1001DC00C5FBC8B90F230593022106910023079391
:1001EC004FF480620892099305A800F0FDFD68B9F0
:1001FC00022301934FF44043039301A800F0AAFE9D
:10020C0030B915B05DF804FBFFF7C0FFFFF7BEFF78
:10021C00FFF7BCFF08B500F067FBFFF7B9FF00F074
:10022C0007F800F0F7F800F055F800F04BF9FEE78E
:10023C002DE9F04188B000240494059406940794A9
:10024C00214B9A6942F020029A619A6902F02002CD
:10025C000192019A9A6942F004029A619A6902F039
:10026C0004020292029A9A6942F008029A619B690E
:10027C0003F008030393039BDFF8508022464FF4EE
:10028C007041404601F000F8114D22464FF4807148
:10029C00284600F0F9FF4FF47043049301270597AB
:1002AC0006940226079604A9404600F0DFFE4FF4A0
:1002BC008073049305970694079604A9284600F0CA
:1002CC00D5FE08B0BDE8F08100100240000C0140E2
:1002DC000008014000B585B00023019302930393FD
:1002EC002448254A02604FF48072826003730375C0
:1002FC004FF46022C26143600423036100F04AFAA8
:10030C0048BB00230193012302930723039301A904
:10031C00184800F073F908BB0123019302230293E0
:10032C0001A9144800F06AF9D8B9022301930323F8
:10033C00029301A90F4800F061F9A8B903230193B6
:10034C00042302930DEB03010A4800F057F970B92E
:10035C0005B05DF804FBFFF719FFD2E7FFF716FFB6
:10036C00DAE7FFF713FFE0E7FFF710FFE6E7FFF729
:10037C000DFFEDE76C0000200024014010B586B0A5
:10038C000023029303930493059302681D4B9A4236
:10039C0001D006B010BD044603F56C439A6942F4D3
:1003AC0000729A619A6902F400720092009A9A693A
:1003BC0042F004029A619B6903F004030193019BD0
:1003CC000F2302930323039302A90F4800F04EFE60
:1003DC000E480F4B03600023436083608022C26091
:1003EC004FF4807202614FF4806242618361C36199
:1003FC0000F050FF18B9054B23625C62C9E7FFF7A8
:10040C00C5FEF8E700240140000801402800002048
:10041C000800024000B583B00A4B5A6942F0010251
:10042C005A615B6903F001030193019B00221146A1
:10043C000B2001F04DF80B2001F05AF803B05DF8D9
:10044C0004FB00BF001002400268094B9A4200D026
:10045C00704782B003F564439A6942F400629A6172
:10046C009B6903F400630193019B02B0704700BFCA
:10047C00002C014000B587B0002302930393049332
:10048C00059302680D4B9A4202D007B05DF804FB4D
:10049C0003F564439A6942F004029A619B6903F084
:1004AC0004030193019B4FF4C06302930223039353
:1004BC00059302A9024800F0D9FDE6E7002C0140A3
:1004CC000008014010B592B00024109411940994C6
:1004DC000A940B940C940D940E940F9420222146A4
:1004EC0001A801F024FA2848284B036047234360F5
:1004FC00846040F2E733C36004614461846101F0BD
:10050C00CFF8002831D100231093119310A91E4865
:10051C0001F088F900282BD16023099300230A935A
:10052C000B930C930D930E930F93042209A9164869
:10053C0001F010F9F8B9082209A9134801F00AF9D9
:10054C00E0B90023019302930393049305934FF4B2
:10055C0000520692089301A90B4801F099F980B951
:10056C000948FFF787FF12B010BDFFF70FFECAE76F
:10057C00FFF70CFED0E7FFF709FEDCE7FFF706FEFE
:10058C00DFE7FFF703FEEBE79C000020002C0140A7
:10059C00FEE7FEE7FEE7FEE7FEE7704770477047B1
:1005AC0008B500F0B3F908BD08B5024800F0A8FE84
:1005BC0008BD00BF2800002082B00E4B9A6942F0A3
:1005CC0001029A619A6902F001020092009ADA69BA
:1005DC0042F08052DA61DB6903F080530193019B96
:1005EC00054A536823F0E06343F00073536002B094
:1005FC00704700BF001002400000014030B482B0D0
:10060C000022019290F82420012A00F08F800346EA
:10061C00012280F824204A68062A2DD80468606BD1
:10062C0002EB8202053A4FF01F0C0CFA02FC20EA96
:10063C000C000D6805FA02F2024362630A68092A8B
:10064C0038D91C68E06802EB42021E3A4FF0070CE6
:10065C000CFA02FC20EA0C008D6805FA02F2024347
:10066C00E2600A68103A012A34D90020002283F88B
:10067C00242002B030BC70470C2A0DD80568286BBA
:10068C0002EB8202233A1F24944020EA04000C68F7
:10069C00944020432863D1E70568E86A02EB8202A4
:1006AC00413A1F24944020EA04000C6894402043F3
:1006BC00E862C3E71C68206902EB42024FF0070CAA
:1006CC000CFA02FC20EA0C008D6805FA02F20243D7
:1006DC002261C6E71A681648824205D09A6A42F02F
:1006EC0020029A620120C1E7906810F4000F1BD120
:1006FC00906840F4000090600A68102A01D0002035
:10070C00B4E70C4A12680C49A1FB0212920C02EBE2
:10071C0082025200019202E0019A013A0192019A7E
:10072C00002AF9D10020A1E700209FE70220A0E7D2
:10073C00002401400800002083DE1B4338B5036809
:10074C009A6812F0010F01D1002038BD04469A6856
:10075C0022F001029A6000F0E5F8054623689B68D8
:10076C0013F0010F13D000F0DDF8431B022BF5D969
:10077C0023689B6813F0010FF0D0A36A43F01003B9
:10078C00A362E36A43F00103E3620120DDE700208A
:10079C00DBE7000000287BD070B50446836A002B91
:1007AC004DD02046FFF7CAFFA36A13F0100369D19E
:1007BC00002867D1A26A22F4885222F0020242F089
:1007CC000202A2626268E1690A43217B42EA4102A9
:1007DC00A568B5F5807F02D0012D36D01D46267D4B
:1007EC00012E35D02668716821F469412943716066
:1007FC002568AE68274931401143A960A168B1F55D
:10080C00807F01D0012902D12369013B1B0525689A
:10081C00E96A21F470010B43EB62236899681E4B63
:10082C000B409A4225D0A36A23F0120343F0100325
:10083C00A362E36A43F00103E362012027E0C36291
:10084C0080F82430FFF79AFDABE74FF48075C6E7CC
:10085C0031B9A169013945EA413141F40065C1E77B
:10086C00A16A41F02001A162E16A41F00101E1625B
:10087C00B8E70023E362A36A23F0030343F0010308
:10088C00A36204E0A36A43F01003A362012070BDCD
:10089C0001207047FDF7E1FFFE0E1FFF10B5044667
:1008AC000E4B1A784FF47A73B3FBF2F30C4A1068C0
:1008BC00B0FBF3F000F02AFE68B90F2C01D901202F
:1008CC000AE0002221464FF0FF3000F001FE054BFC
:1008DC001C60002000E0012010BD00BF00000020C3
:1008EC00080000200400002008B5074A136843F0F4
:1008FC0010031360032000F0D9FD0F20FFF7CEFF8B
:10090C00FFF75AFE002008BD00200240034A116880
:10091C00034B1B780B441360704700BFE4000020AE
:10092C0000000020014B1868704700BFE400002055
:10093C0082B0084B1B68084AA2FB03235B0A00FB2E
:10094C0003F3019300BF019B5A1E0192002BF9D1B6
:10095C0002B0704708000020D34D6210002800F050
:10096C00F18170B582B00446036813F0010F2CD0EE
:10097C00994B5B6803F00C03042B1DD0964B5B6802
:10098C0003F00C03082B12D06368B3F5803F41D001
:10099C00002B55D103F1804303F504331A6822F47C
:1009AC0080321A601A6822F480221A6037E08A4B6F
:1009BC005B6813F4803FE7D0874B1B6813F4003F50
:1009CC0003D06368002B00F0BF81236813F0020F83
:1009DC0075D0814B5B6813F00C0F5FD07E4B5B685E
:1009EC0003F00C03082B54D02369002B00F08A80F1
:1009FC007A4B01221A60FFF795FF0546764B1B6870
:100A0C0013F0020F75D1FFF78DFF401B0228F5D9AB
:100A1C0003209EE1704A136843F4803313606368CB
:100A2C0043B3FFF77FFF05466B4B1B6813F4003F86
:100A3C00CBD1FFF777FF401B6428F5D9032088E161
:100A4C00B3F5A02F09D0644B1A6822F480321A60D7
:100A5C001A6822F480221A60E1E703F18043A3F5BF
:100A6C003C331A6842F480221A601A6842F48032CD
:100A7C001A60D4E7FFF756FF0546574B1B6813F473
:100A8C00003FA2D0FFF74EFF401B6428F5D903208E
:100A9C005FE1514B5B6813F4803FA5D14E4B1B6853
:100AAC0013F0020F03D02369012B40F04F814A4A07
:100ABC00136823F0F803616943EAC10313602368E8
:100ACC0013F0080F33D0A369002B5CD0434B0122E9
:100ADC00C3F88024FFF726FF05463F4B5B6A13F0F3
:100AEC00020F21D1FFF71EFF401B0228F5D903206E
:100AFC002FE1394A136823F0F803616943EAC10313
:100B0C001360DCE7354B00221A60FFF70BFF05463C
:100B1C00314B1B6813F0020FD1D0FFF703FF401BC2
:100B2C000228F5D9032014E10120FFF701FF236807
:100B3C0013F0040F00F09680274BDB6913F0805FF5
:100B4C0034D1254BDA6942F08052DA61DB6903F06B
:100B5C0080530193019B0125214B1B6813F4807F6B
:100B6C0026D0E368012B3DD0002B53D103F18043F9
:100B7C0003F504331A6A22F001021A621A6A22F08F
:100B8C0004021A6233E0154B0022C3F88024FFF7ED
:100B9C00C9FE0546104B5B6A13F0020FC7D0FFF776
:100BAC00C1FE401B0228F5D90320D2E00025D3E773
:100BBC000B4A136843F480731360FFF7B3FE0646C9
:100BCC00074B1B6813F4807FCBD1FFF7ABFE801B68
:100BDC006428F5D90320BCE000100240000042421A
:100BEC00007000405F4A136A43F001031362E3682C
:100BFC0033B3FFF797FE06465A4B1B6A13F0020FEE
:100C0C002FD1FFF78FFE801B41F288339842F3D926
:100C1C0003209EE0052B09D0524B1A6A22F00102E8
:100C2C001A621A6A22F004021A62E0E74D4B1A6A41
:100C3C0042F004021A621A6A42F001021A62D6E702
:100C4C00FFF770FE0646474B1B6A13F0020F08D0E5
:100C5C00FFF768FE801B41F288339842F3D90320DA
:100C6C0077E0E5B9E369002B72D03E4A526802F096
:100C7C000C02082A56D0022B17D03B4B00221A66C6
:100C8C00FFF750FE0446374B1B6813F0007F47D02C
:100C9C00FFF748FE001B0228F5D9032059E0314A22
:100CAC00D36923F08053D361DCE72F4B00221A6603
:100CBC00FFF738FE05462B4B1B6813F0007F06D060
:100CCC00FFF730FE401B0228F5D9032041E0236AD0
:100CDC00B3F5803F1AD023494B6823F47413226A6E
:100CEC00606A024313434B601F4B01221A66FFF7E5
:100CFC0019FE04461B4B1B6813F0007F0ED1FFF747
:100D0C0011FE001B0228F5D9032022E0154A536876
:100D1C0023F40033A1680B435360DCE7002018E098
:100D2C00002016E0012B16D00E4B5B6803F48031CB
:100D3C00226A914211D103F47013626A93420ED16C
:100D4C00002006E001207047012002E0012000E0B5
:100D5C00002002B070BD0120FBE70120F9E7012063
:100D6C00F7E700BF001002400000424286B0194B6A
:100D7C000FCB0DF1180C0CE90F0040F20123ADF86C
:100D8C000430154B5A6802F00C03042B1CD0082BB2
:100D9C001CD1C2F3834318336B4413F8100C12F4B8
:100DAC00803F0DD00C4B5B68C3F3404318336B444E
:100DBC0013F8143C094A02FB00F0B0FBF3F006E018
:100DCC00074B03FB00F002E0044800E0054806B0C6
:100DDC00704700BFAC19000800100240001BB700A0
:100DEC0000093D0000127A00002800F0A08070B5C8
:100DFC000D460446524B1B6803F007038B420BD283
:100E0C004F4A136823F007030B431360136803F076
:100E1C0007038B4240F08D80236813F0020F17D02C
:100E2C0013F0040F04D0474A536843F4E063536053
:100E3C00236813F0080F04D0424A536843F46053FC
:100E4C005360404A536823F0F003A1680B4353608E
:100E5C00236813F0010F31D06368012B20D0022BD3
:100E6C0025D0384A126812F0020F64D035494A680E
:100E7C0022F0030213434B60FFF754FD0646314B3F
:100E8C005B6803F00C036268B3EB820F16D0FFF7BC
:100E9C0049FD801B41F288339842F0D9032045E08C
:100EAC00284A126812F4003FE0D101203EE0254AA6
:100EBC00126812F0007FD9D1012037E0204B1B685B
:100ECC0003F00703AB420AD91D4A136823F007034A
:100EDC002B431360136803F00703AB422DD1236837
:100EEC0013F0040F06D0174A536823F4E063E1684B
:100EFC000B435360236813F0080F07D0114A536853
:100F0C0023F46053216943EAC1035360FFF72EFFBA
:100F1C000C4B5B68C3F303130B4AD35CD8400B4BED
:100F2C0018600B4B1868FFF7B9FC002070BD01204E
:100F3C0070470120FAE70120F8E70120F6E700BF2F
:100F4C000020024000100240C019000808000020D8
:100F5C000400002070B582B00446036813F0010F42
:100F6C0036D03F4BDB6913F0805F49D13C4BDA69DB
:100F7C0042F08052DA61DB6903F080530193019BEC
:100F8C000125384B1B6813F4807F3BD0344B1B6A14
:100F9C0013F4407313D0626802F440729A420ED07C
:100FAC002F4A136A23F440702F490126C1F840647C
:100FBC000026C1F84064106213F0010F36D1284AA4
:100FCC00136A23F4407361680B431362002D3ED106
:100FDC00236813F0020F06D0214A536823F44043D0
:100FEC00A1680B435360236813F0100F34D01C4AD4
:100FFC00536823F48003E1680B43536000202CE01A
:10100C000025BEE7174A136843F480731360FFF79B
:10101C0089FC0646134B1B6813F4807FB6D1FFF78F
:10102C0081FC801B6428F5D9032016E0FFF77AFCBD
:10103C0006460B4B1B6A13F0020FC0D1FFF772FC74
:10104C00801B41F288339842F3D9032005E0D36921
:10105C0023F08053D361BBE7002002B070BD00BF0A
:10106C0000100240007000400000424270B582B097
:10107C000024A446A2E07E4DAB4210D007D97D4D92
:10108C00AB420CD005F58035AB4208D013E0A5F58A
:10109C008015AB4203D005F57025AB4207D18B68A8
:1010AC00002B55D0012B4ED04261082403E0A5F54E
:1010BC008015AB42F3D0BEF1FF0F4BD806464FEA7A
:1010CC008C0233680F25954023EA050304FA02F2DB
:1010DC00134333604B6813F0805F6DD0664B9A6995
:1010EC0042F001029A619B6903F001030193019B99
:1010FC004FEA9C02951C614B53F825600CF00305DC
:10110C00AD000F23AB4026EA03065D4B984228D076
:10111C0003F58063984200F08D8003F5806398425C
:10112C0000F08A8003F58063984218D0042319E0FC
:10113C00CC68C0E7CC680434BDE7CC680834BAE7A7
:10114C00CC680C34B7E702610824B4E70024B2E79A
:10115C000424B0E7061DACF108029200B1E70323AA
:10116C0000E00023AB4033430232444D45F82230BB
:10117C004B6813F4803F61D0424A136843EA0E0374
:10118C0013604B6813F4003F5ED03E4A536843EA49
:10119C000E0353604B6813F4801F5BD0394A93687D
:1011AC0043EA0E0393604B6813F4001F58D0354A82
:1011BC00D36843EA0E03D3600CF1010C0B6833FACD
:1011CC000CF253D0012202FA0CF203EA020E32EABC
:1011DC000303F1D14B68122B3FF64DAF122B3FF6A8
:1011EC006AAF01A555F823F0AB1000083D110008BB
:1011FC004711000859110008C3100008C31000085B
:10120C00C3100008C3100008C3100008C310000866
:10121C00C3100008C3100008C3100008C310000856
:10122C00C3100008C3100008C310000841110008C7
:10123C004D110008012395E7022393E7114A136827
:10124C0023EA0E0313609CE70E4A536823EA0E034D
:10125C0053609FE70B4A936823EA0E039360A2E75F
:10126C00084AD36823EA0E03D360A5E702B070BD29
:10127C00000022100000311000100240000001405C
:10128C0000080140000401400AB1016170470904E3
:10129C000161704760B310B402460168154B0B44F2
:1012AC001548A0FB03031B099B001364134BD3636A
:1012BC00022382F82130086820F47F5020F030009F
:1012CC00536894682343D4682343146923435469B3
:1012DC00234394692343D469234303430B600020C5
:1012EC009063012382F8213082F8200010BC7047F3
:1012FC0001207047F8FFFDBFCDCCCCCC00000240E4
:10130C0038B5C36B1A6804682568016C04238B40DC
:10131C00134235D015F0040F32D0236813F0200F90
:10132C0003D1236823F0040323600368434A9342E8
:10133C0014D01432934218D01432934217D0143272
:10134C00934217D01432934217D01432934202D0E6
:10135C004FF0806203E04FF4800200E00422384B2F
:10136C005A60C36A03B1984738BD4022F7E74FF47F
:10137C008062F4E74FF48042F1E74FF48022EEE70D
:10138C0002238B4013423CD015F0020F39D0236856
:10139C0013F0200F06D1236823F00A0323600123E6
:1013AC0080F821300368254A934214D014329342BA
:1013BC001CD0143293421BD0143293421BD01432E3
:1013CC0093421BD01432934202D04FF0007203E0D0
:1013DC004FF4001200E00222194B5A60002380F8EF
:1013EC002030836A002BBFD09847BDE72022F3E75B
:1013FC004FF40072F0E74FF40052EDE74FF4003277
:10140C00EAE708238B401342AED015F0080FABD09F
:10141C00236823F00E032360026CC16B012303FAD3
:10142C0002F24A60836380F82130002380F8203078
:10143C00036B002B98D0984796E700BF080002403A
:10144C0000000240002808DB0901C9B200F160402D
:10145C0000F5614080F80013704700F00F0009019F
:10146C00C9B2014B1954704714ED00E000B500F0FF
:10147C000700C0F1070CBCF1040F28BF4FF0040C9F
:10148C00031D062B0FD9C31E4FF0FF3E0EFA0CF0B6
:10149C0021EA000199400EFA03FE22EA0E0241EA0B
:1014AC0002005DF804FB0023EEE70000074AD36856
:1014BC0023F4E0631B041B0C000200F4E060034304
:1014CC0043F0BF6343F40033D360704700ED00E09A
:1014DC0010B50446054BD868C0F30220FFF7C6FFD1
:1014EC0001462046FFF7AEFF10BD00BF00ED00E047
:1014FC00002807DB00F01F02400901239340024A39
:10150C0042F82030704700BF00E100E00138B0F134
:10151C00807F0BD24FF0E0235861054AF02182F80E
:10152C0023100020986107221A6170470120704730
:10153C0000ED00E030B4036A23F001030362026A99
:10154C004568836923F073030C681C4322F0020284
:10155C008B6813430B4A904206D0456084614A68FD
:10156C004263036230BC704723F00803CA681A4315
:10157C0022F0040325F440754A692A438D6915430A
:10158C00EBE700BF002C014030B4036A23F48073F6
:10159C000362036A4468C26922F073020D68154342
:1015AC0023F400738A6843EA02230D4A904206D062
:1015BC004460C5614A68C263036230BC704723F45F
:1015CC000063CA6843EA022323F4806324F4405482
:1015DC004A6944EA02148A6944EA0214E8E700BF43
:1015EC00002C014030B4036A23F480530362036A75
:1015FC004468C26922F4E6420D6842EA052223F4EB
:10160C0000538D6843EA0533074DA84206D0446069
:10161C00C2614A680264036230BC704724F480449F
:10162C004D6944EA8514F2E7002C014003681B4A1B
:10163C0090420AD0B0F1804F07D0A2F5943290427C
:10164C0003D002F58062904203D123F070034A6804
:10165C001343124A90420AD0B0F1804F07D0A2F542
:10166C009432904203D002F58062904203D123F46D
:10167C004073CA68134323F080034A691343036021
:10168C008B68C3620B688362044B984202D00123BF
:10169C00436170470B690363F9E700BF002C0140FD
:1016AC0040B310B5044690F83D30F3B1022384F8F2
:1016BC003D30214651F8040BFFF7B8FF012384F8A5
:1016CC00463084F83E3084F83F3084F8403084F85B
:1016DC00413084F8423084F8433084F8443084F844
:1016EC00453084F83D30002010BD80F83C30FEF7CA
:1016FC00ABFEDBE70120704730B4036A23F0100324
:10170C000362036A4468826922F4E6420D6842EA85
:10171C00052223F020038D6843EA05130C4DA842E3
:10172C0006D0446082614A688263036230BC7047B1
:10173C0023F08003CD6843EA051323F0400324F41F
:10174C0040644D6944EA85048D6944EA8504E8E700
:10175C00002C014038B590F83C30012B60D0044689
:10176C000D46012380F83C300C2A1AD8DFE802F031
:10177C00071919191D19191931191919440000687B
:10178C00FFF7D8FE2268936943F00803936122683F
:10179C00936923F0040393612268936929690B43CD
:1017AC009361002084F83C0038BD0068FFF7A4FF6B
:1017BC002268936943F4006393612268936923F46C
:1017CC008063936122689369296943EA01239361D9
:1017DC00E7E70068FFF7D8FE2268D36943F00803F7
:1017EC00D3612268D36923F00403D3612268D369DF
:1017FC0029690B43D361D4E70068FFF7F3FE226835
:10180C00D36943F40063D3612268D36923F4806302
:10181C00D3612268D369296943EA0123D361C0E704
:10182C000220C1E790F83C20012A2CD010B40346CA
:10183C00012280F83C20022280F83D20026850688A
:10184C00946820F0700C086840EA0C0050601A682C
:10185C000E4882420AD0B2F1804F07D0A0F59430E6
:10186C00824203D000F58060824204D124F08004CF
:10187C00496821439160012283F83D20002083F8C0
:10188C003C0010BC70470220704700BF002C014088
:10189C00024690F83C30012B21D0012380F83C30DB
:1018AC00CB6823F440738868034323F4806348684F
:1018BC00034323F400630868034323F4805308694B
:1018CC00034323F400534869034323F48043C96959
:1018DC000B4311684B64002082F83C0070470220D7
:1018EC00704770470C480D490D4A002302E0D4584C
:1018FC00C4500433C4188C42F9D30A4A0A4C00234E
:10190C0001E013600432A242FBD3FFF7EAFF00F0C0
:10191C0017F8FEF77FFC7047000000200C00002039
:10192C00D81900080C000020E8000020FEE7034650
:10193C000244934200D1704703F8011BF9E7000001
:10194C0070B500260C4D0D4C641BA410A64209D199
:10195C0000F01AF800260A4D0A4C641BA410A6428B
:10196C0005D170BD55F8043B98470136EEE755F8A4
:10197C00043B98470136F2E7D0190008D01900084B
:10198C00D0190008D4190008F8B500BFF8BC08BC81
:10199C009E467047F8B500BFF8BC08BC9E46704721
:1019AC0002030405060708090A0B0C0D0E0F101094
:1019BC000000000000000000000000000102030411
:0419CC0006070809F9
:0419D0007501000895
:0419D4004D010008B9
:0C19D80001000000100000000024F400DA
:04000005080018F1E6
:00000001FF
